{
  "_format": "hh-sol-artifact-1",
  "contractName": "GuardianChainRegistry",
  "sourceName": "contracts/GuardianChainRegistry.sol",
  "abi": [
    {
      "anonymous": false,
      "inputs": [
        {
          "indexed": true,
          "internalType": "bytes32",
          "name": "proofHash",
          "type": "bytes32"
        },
        {
          "indexed": false,
          "internalType": "uint256",
          "name": "timestamp",
          "type": "uint256"
        },
        {
          "indexed": true,
          "internalType": "address",
          "name": "registrar",
          "type": "address"
        }
      ],
      "name": "ProofRegistered",
      "type": "event"
    },
    {
      "inputs": [
        {
          "internalType": "bytes32",
          "name": "proofHash",
          "type": "bytes32"
        }
      ],
      "name": "registerProof",
      "outputs": [],
      "stateMutability": "nonpayable",
      "type": "function"
    },
    {
      "inputs": [
        {
          "internalType": "bytes32",
          "name": "proofHash",
          "type": "bytes32"
        }
      ],
      "name": "verifyProof",
      "outputs": [
        {
          "internalType": "bool",
          "name": "",
          "type": "bool"
        }
      ],
      "stateMutability": "view",
      "type": "function"
    }
  ],
  "bytecode": "0x608060405234801561001057600080fd5b506103c3806100206000396000f3fe608060405234801561001057600080fd5b50600436106100365760003560e01c80630849068d1461003b578063b142b4ec14610057575b600080fd5b6100556004803603810190610050919061020d565b610087565b005b610071600480360381019061006c919061020d565b6101a9565b60405161007e9190610255565b60405180910390f35b6000801b81036100cc576040517f08c379a00000000000000000000000000000000000000000000000000000000081526004016100c3906102cd565b60405180910390fd5b60008082815260200190815260200160002060009054906101000a900460ff161561012c576040517f08c379a000000000000000000000000000000000000000000000000000000000815260040161012390610339565b60405180910390fd5b600160008083815260200190815260200160002060006101000a81548160ff0219169083151502179055503373ffffffffffffffffffffffffffffffffffffffff16817f479311b340ca72a8f557311fe6702a64017a6a50d940ef300ef4ce183bc81bdb4260405161019e9190610372565b60405180910390a350565b600080600083815260200190815260200160002060009054906101000a900460ff169050919050565b600080fd5b6000819050919050565b6101ea816101d7565b81146101f557600080fd5b50565b600081359050610207816101e1565b92915050565b600060208284031215610223576102226101d2565b5b6000610231848285016101f8565b91505092915050565b60008115159050919050565b61024f8161023a565b82525050565b600060208201905061026a6000830184610246565b92915050565b600082825260208201905092915050565b7f496e76616c696420686173680000000000000000000000000000000000000000600082015250565b60006102b7600c83610270565b91506102c282610281565b602082019050919050565b600060208201905081810360008301526102e6816102aa565b9050919050565b7f50726f6f6620616c726561647920726567697374657265640000000000000000600082015250565b6000610323601883610270565b915061032e826102ed565b602082019050919050565b6000602082019050818103600083015261035281610316565b9050919050565b6000819050919050565b61036c81610359565b82525050565b60006020820190506103876000830184610363565b9291505056fea26469706673582212206fa6ca9b097227ba3c2bae87acef9b5c4969dea5dccbccc8bb5d64bc36621c7964736f6c63430008140033",
  "linkReferences": {},
  "deployedLinkReferences": {}
}